:020000040800F2
:1000000000040020B9020008BB020008BB0200087F
:10001000BB020008BB020008BB020008BB020008CC
:10002000BB020008BB020008BB0200080135000843
:10003000BB020008BB020008BB020008BB020008AC
:10004000BB020008BB020008BB020008BB0200089C
:10005000BB020008BB020008BB020008BB0200088C
:10006000BB020008BB020008BB020008F16D0008DB
:10007000B16D0008716D0008316D0008F16C000869
:10008000B16C0008716C0008316E0008BB020008FA
:10009000BB020008BB020008BB020008BB0200084C
:1000A000BB020008BB020008BB020008BB0200083C
:1000B000F16600082166000841660008F168000842
:1000C000E1670008BB020008BB020008BB02000891
:1000D000BB020008BB020008D1630008BB02000895
:1000E000BB020008BB020008BB020008BB020008FC
:1000F000BB020008BB020008BB020008316C00080C
:10010000BB020008BB02000801660008BB02000831
:10011000BB020008BB020008BB020008BB020008CB
:10012000F16B0008B16B0008716B0008316B0008BF
:10013000F16A0008BB020008BB020008BB0200080D
:10014000BB020008BB020008BB020008BB0200089B
:10015000B16A0008716A0008316A0008BB02000831
:10016000BB020008BB020008BB020008BB0200087B
:10017000BB020008BB020008BB020008BB0200086B
:10018000BB020008BB020008BB020008BB0200085B
:10019000BB020008BB020008BB020008BB0200084B
:1001A000BB020008BB020008BB020008BB0200083B
:1001B000BB020008BB020008BB020008BB0200082B
:1001C000BB020008BB020008BB020008BB0200081B
:1001D000BB020008BB020008BB020008BB0200080B
:1001E00072B6274880F30888264880F30988264895
:1001F0004EF60851CEF200010860022080F3148808
:10020000BFF36F8F06F0D4FE05F0F2FF4FF05530CC
:100210001E491B4A91423CBF41F8040BFAE71C49B6
:10022000184A91423CBF41F8040BFAE719491A4AAF
:100230001A4B9A423EBF51F8040B42F8040BF8E700
:1002400000201749174A91423CBF41F8040BFAE7D6
:1002500006F066FE06F0A4FE134C144DAC4203DA21
:1002600054F8041B8847F9E704F012FD104C114DB7
:10027000AC4203DA54F8041B8847F9E706F088BE5D
:1002800000040020000800200000000800000020FA
:10029000000400209499000800080020A00C002011
:1002A000A00C0020E01D0020E0010008E001000893
:1002B000E0010008E001000892E700F000F8FEE726
:1002C0002DE9F04FC1F80CD0C3689D46BDE8F08F12
:1002D00003F066F903F024F9002383F3118828461C
:1002E000A047002004F03CFCFEE703F021F903F0F6
:1002F00067F903F025F903F053F903F011F900DF72
:10030000FEE7000081F0004102E000BF83F00043FF
:1003100030B54FEA41044FEA430594EA050F08BFA0
:1003200090EA020F1FBF54EA000C55EA020C7FEA64
:10033000645C7FEA655C00F0E2804FEA5454D4EBE1
:100340005555B8BF6D420CDD2C4480EA020281EAAB
:10035000030382EA000083EA010180EA020281EAE3
:100360000303362D88BF30BD11F0004F4FEA013135
:100370004FF4801C4CEA113102D0404261EB410144
:1003800013F0004F4FEA03334CEA133302D05242CA
:1003900063EB430394EA050F00F0A780A4F1010486
:1003A000D5F1200E0DDB02FA0EFC22FA05F28018C0
:1003B00041F1000103FA0EF2801843FA05F35941A6
:1003C0000EE0A5F120050EF1200E012A03FA0EFC25
:1003D00028BF4CF0020C43FA05F3C01851EBE3714F
:1003E00001F0004507D54FF0000EDCF1000C7EEB6C
:1003F00000006EEB0101B1F5801F1BD3B1F5001FAA
:100400000CD349085FEA30004FEA3C0C04F10104C8
:100410004FEA445212F5800F80F09A80BCF1004FF1
:1004200008BF5FEA500C50F1000041EB045141EA73
:10043000050130BD5FEA4C0C404141EB0101013C3C
:1004400028BFB1F5801FE9D291F0000F04BF01462B
:100450000020B1FA81F308BF2033A3F10B03B3F1FD
:1004600020020CDA0C3208DD02F1140CC2F10C028D
:1004700001FA0CF021FA02F10CE002F11402D8BFEB
:10048000C2F1200C01FA02F120FA0CFCDCBF41EAB7
:100490000C019040E41AA2BF01EB0451294330BD86
:1004A0006FEA04041F3C1CDA0C340EDC04F1140463
:1004B000C4F1200220FA04F001FA02F340EA03003A
:1004C00021FA04F345EA030130BDC4F10C04C4F180
:1004D000200220FA02F001FA04F340EA0300294660
:1004E00030BD21FA04F0294630BD94F0000F83F4AA
:1004F000801306BF81F480110134013D4EE77FEA8D
:10050000645C18BF7FEA655C29D094EA050F08BFD8
:1005100090EA020F05D054EA000C04BF19461046B9
:1005200030BD91EA030F1EBF0021002030BD5FEAFD
:10053000545C05D14000494128BF41F0004130BD25
:1005400014F580043CBF01F5801130BD01F0004579
:1005500045F0FE4141F470014FF0000030BD7FEAEC
:10056000645C1ABF194610467FEA655C1CBF0B46E7
:10057000024650EA013406BF52EA033591EA030FFE
:1005800041F4002130BD00BF90F0000F04BF0021F6
:10059000704730B54FF4806404F132044FF0000529
:1005A0004FF0000150E700BF90F0000F04BF0021A2
:1005B000704730B54FF4806404F1320410F0004508
:1005C00048BF40424FF000013EE700BF42004FEA03
:1005D000E2014FEA31014FEA02701FBF12F07F4380
:1005E00093F07F4F81F06051704732F07F4208BF37
:1005F000704793F07F4F04BF41F40021704730B53E
:100600004FF4607401F0004521F000411CE700BF89
:1006100050EA010208BF704730B54FF000050AE00C
:1006200050EA010208BF704730B511F0004502D50D
:10063000404261EB41014FF4806404F132045FEA0F
:10064000915C3FF4D8AE4FF003025FEADC0C18BFB8
:1006500003325FEADC0C18BF033202EBDC02C2F1AA
:10066000200300FA03FC20FA02F001FA03FE40EA3C
:100670000E0021FA02F11444BDE600BF70B54FF040
:10068000FF0C4CF4E06C1CEA11541DBF1CEA13551E
:1006900094EA0C0F95EA0C0F00F0DEF82C4481EA86
:1006A000030621EA4C5123EA4C5350EA013518BFA6
:1006B00052EA033541F4801143F4801338D0A0FB93
:1006C00002CE4FF00005E1FB02E506F00042E0FB40
:1006D00003E54FF00006E1FB03569CF0000F18BF46
:1006E0004EF0010EA4F1FF04B6F5007F64F54074EE
:1006F00004D25FEA4E0E6D4146EB060642EAC62181
:1007000041EA55514FEAC52040EA5E504FEACE2EED
:10071000B4F1FD0C88BFBCF5E06F1ED8BEF1004FF0
:1007200008BF5FEA500E50F1000041EB045170BD6C
:1007300006F0004646EA010140EA020081EA0301B0
:10074000B4EB5C04C2BFD4EB0C0541EA045170BDAC
:1007500041F480114FF0000E013C00F3AB8014F126
:10076000360FDEBF002001F0004170BDC4F100046F
:10077000203C35DA0C341BDC04F11404C4F12005F0
:1007800000FA05F320FA04F001FA05F240EA02004B
:1007900001F0004221F0004110EBD37021FA04F681
:1007A00042EB06015EEA430E08BF20EAD37070BD3B
:1007B000C4F10C04C4F1200500FA04F320FA05F09A
:1007C00001FA04F240EA020001F0004110EBD3709C
:1007D00041F100015EEA430E08BF20EAD37070BD0C
:1007E000C4F1200500FA05F24EEA020E20FA04F3E5
:1007F00001FA05F243EA020321FA04F001F0004194
:1008000021FA04F220EA020000EBD3705EEA430E04
:1008100008BF20EAD37070BD94F0000F0FD101F033
:100820000046400041EB010111F4801F08BF013C6C
:10083000F7D041EA060195F0000F18BF704703F0AA
:100840000046520043EB030313F4801F08BF013D31
:10085000F7D043EA0603704794EA0C0F0CEA1355ED
:1008600018BF95EA0C0F0CD050EA410618BF52EAA7
:100870004306D1D181EA030101F000414FF00000AD
:1008800070BD50EA410606BF1046194652EA4306BB
:1008900019D094EA0C0F02D150EA013613D195EA2F
:1008A0000C0F05D152EA03361CBF104619460AD177
:1008B00081EA030101F0004141F0FE4141F4700181
:1008C0004FF0000070BD41F0FE4141F4780170BD71
:1008D00070B54FF0FF0C4CF4E06C1CEA11541DBFD6
:1008E0001CEA135594EA0C0F95EA0C0F00F0A7F8D8
:1008F000A4EB050481EA030E52EA03354FEA013105
:1009000000F088804FEA03334FF0805545EA131317
:1009100043EA12634FEA022245EA111545EA1065DF
:100920004FEA00260EF000419D4208BF964244F176
:10093000FD0404F5407402D25B084FEA3202B61A95
:1009400065EB03055B084FEA32024FF480104FF469
:10095000002CB6EB020E75EB030E22BFB61A7546DD
:1009600040EA0C005B084FEA3202B6EB020E75EB70
:10097000030E22BFB61A754640EA5C005B084FEAD8
:100980003202B6EB020E75EB030E22BFB61A7546A5
:1009900040EA9C005B084FEA3202B6EB020E75EBB0
:1009A000030E22BFB61A754640EADC0055EA060E71
:1009B00018D04FEA051545EA16754FEA06164FEAB4
:1009C000C30343EA52734FEAC2025FEA1C1CC0D160
:1009D00011F4801F0BD141EA00014FF000004FF0ED
:1009E000004CB6E711F4801F04BF01430020B4F1AE
:1009F000FD0C88BFBCF5E06F3FF6AFAEB5EB030C66
:100A000004BFB6EB020C5FEA500C50F1000041EB62
:100A1000045170BD0EF0004E4EEA113114EB5C042F
:100A2000C2BFD4EB0C0541EA045170BD41F4801102
:100A30004FF0000E013C90E645EA060E8DE60CEA0A
:100A4000135594EA0C0F08BF95EA0C0F3FF43BAF27
:100A500094EA0C0F0AD150EA01347FF434AF95EADE
:100A60000C0F7FF425AF104619462CE795EA0C0FC2
:100A700006D152EA03353FF4FDAE1046194622E78F
:100A800050EA410618BF52EA43067FF4C5AE50EA69
:100A900041047FF40DAF52EA43057FF4EBAE12E759
:100AA0004FF0FF3C06E000BF4FF0010C02E000BF3A
:100AB0004FF0010C4DF804CD4FEA410C7FEA6C5C1D
:100AC0004FEA430C18BF7FEA6C5C1BD001B050EAC0
:100AD000410C0CBF52EA430C91EA030F02BF90EAAB
:100AE000020F0020704710F1000F91EA030F58BF6A
:100AF000994208BF90422CBFD8176FEAE37040F0CC
:100B0000010070474FEA410C7FEA6C5C02D150EA69
:100B1000013C07D14FEA430C7FEA6C5CD6D152EA24
:100B2000033CD3D05DF8040B704700BF84461046E9
:100B300062468C461946634600E000BF01B5FFF7E8
:100B4000B7FF002848BF10F1000F01BD4DF808EDB8
:100B5000FFF7F4FF0CBF012000205DF808FB00BF89
:100B60004DF808EDFFF7EAFF34BF012000205DF8E3
:100B700008FB00BF4DF808EDFFF7E0FF94BF012030
:100B800000205DF808FB00BF4DF808EDFFF7CEFF31
:100B900094BF012000205DF808FB00BF4DF808ED70
:100BA000FFF7C4FF34BF012000205DF808FB00BF41
:100BB0004FEA410C7FEA6C5C02D150EA013C0AD159
:100BC0004FEA430C7FEA6C5C02D152EA033C02D14B
:100BD0004FF0000070474FF0010070474FEA4102AC
:100BE00012F5001215D211D56FF47873B3EB62527F
:100BF00012D94FEAC12343F0004343EA505311F0A6
:100C0000004F23FA02F018BF404270474FF0000037
:100C1000704750EA013005D111F0004008BF6FF075
:100C2000004070474FF00000704700BF4FEA41029C
:100C3000B2F1E04324BFB3F5001CDCF1FE5C0DD93A
:100C400001F0004C4FEAC0024CEA5070B2F1004F84
:100C500040EB830008BF20F00100704711F0804F87
:100C600021D113F13872BCBF01F00040704741F44C
:100C700080114FEA5252C2F11802C2F1200C10FA50
:100C80000CF320FA02F018BF40F001004FEAC12334
:100C90004FEAD32303FA0CFC40EA0C0023FA02F3D8
:100CA0004FEA4303CCE77FEA625307D150EA0133AE
:100CB0001EBF4FF0FE4040F44000704701F000407E
:100CC00040F0FE4040F40000704700BF80F000405C
:100CD00002E000BF81F0004142001FBF5FEA410314
:100CE00092EA030F7FEA226C7FEA236C6AD04FEA14
:100CF0001262D2EB1363C1BFD21841404840414059
:100D0000B8BF5B42192B88BF704710F0004F40F40A
:100D1000000020F07F4018BF404211F0004F41F426
:100D2000000121F07F4118BF494292EA030F3FD0F2
:100D3000A2F1010241FA03FC10EB0C00C3F1200305
:100D400001FA03F100F0004302D5494260EB400094
:100D5000B0F5000F13D3B0F1807F06D340084FEAFF
:100D6000310102F10102FE2A51D2B1F1004F40EBF4
:100D7000C25008BF20F0010040EA0300704749005C
:100D800040EB0000013A28BFB0F5000FEDD2B0FAF9
:100D900080FCACF1080CB2EB0C0200FA0CF0AABF1C
:100DA00000EBC25052421843BCBFD04018437047BA
:100DB00092F0000F81F4000106BF80F400000132C0
:100DC000013BB5E74FEA41037FEA226C18BF7FEA97
:100DD000236C21D092EA030F04D092F0000F08BFD9
:100DE0000846704790EA010F1CBF0020704712F0C0
:100DF0007F4F04D1400028BF40F00040704712F1FF
:100E000000723CBF00F50000704700F0004343F063
:100E1000FE4040F4000070477FEA226216BF084699
:100E20007FEA23630146420206BF5FEA412390EA5C
:100E3000010F40F4800070474FF0000304E000BF52
:100E400010F0004348BF40425FEA000C08BF704703
:100E500043F0964301464FF000001CE050EA0102C7
:100E600008BF70474FF000030AE000BF50EA0102DC
:100E700008BF704711F0004302D5404261EB4101C9
:100E80005FEA010C02BF84460146002043F0B643EE
:100E900008BFA3F18053A3F50003BCFA8CF2083A13
:100EA000A3EBC25310DB01FA02FC634400FA02FC1C
:100EB000C2F12002BCF1004F20FA02F243EB020023
:100EC00008BF20F00100704702F1200201FA02FC85
:100ED000C2F1200250EA4C0021FA02F243EB020078
:100EE00008BF20EADC7070474FF0FF0C1CEAD052BC
:100EF0001EBF1CEAD15392EA0C0F93EA0C0F6FD07D
:100F00001A4480EA010C400218BF5FEA41211ED05A
:100F10004FF0006343EA501043EA5111A0FB013146
:100F20000CF00040B1F5000F3EBF490041EAD3711B
:100F30005B0040EA010062F17F02FD2A1DD8B3F197
:100F4000004F40EBC25008BF20F00100704790F006
:100F5000000F0CF0004C08BF49024CEA502040EA58
:100F600051207F3AC2BFD2F1FF0340EAC25070471E
:100F700040F400004FF00003013A5DDC12F1190F5C
:100F8000DCBF00F000407047C2F10002410021FACE
:100F900002F1C2F1200200FA02FC5FEA310040F1E6
:100FA000000053EA4C0308BF20EADC70704792F05F
:100FB000000F00F0004C02BF400010F4000F013A97
:100FC000F9D040EA0C0093F0000F01F0004C02BF92
:100FD000490011F4000F013BF9D041EA0C018FE701
:100FE0000CEAD15392EA0C0F18BF93EA0C0F0AD007
:100FF00030F0004C18BF31F0004CD8D180EA01002D
:1010000000F00040704790F0000F17BF90F0004FC5
:10101000084691F0000F91F0004F14D092EA0C0FA7
:1010200001D142020FD193EA0C0F03D14B0218BF3A
:10103000084608D180EA010000F0004040F0FE4080
:1010400040F40000704740F0FE4040F4400070471C
:101050004FF0FF0C1CEAD0521EBF1CEAD15392EA9B
:101060000C0F93EA0C0F69D0A2EB030280EA010C8B
:1010700049024FEA402037D04FF0805343EA111124
:1010800043EA10130CF000408B4238BF5B0042F182
:101090007D024FF4000C8B4224BF5B1A40EA0C0027
:1010A000B3EB510F24BFA3EB510340EA5C00B3EB59
:1010B000910F24BFA3EB910340EA9C00B3EBD10F47
:1010C00024BFA3EBD10340EADC001B0118BF5FEA99
:1010D0001C1CE0D1FD2A3FF650AF8B4240EBC250C2
:1010E00008BF20F0010070470CF0004C4CEA502083
:1010F0007F32C2BFD2F1FF0340EAC250704740F4D2
:1011000000004FF00003013A37E792F0000F00F0C3
:10111000004C02BF400010F4000F013AF9D040EA41
:101120000C0093F0000F01F0004C02BF490011F4D5
:10113000000F013BF9D041EA0C0195E70CEAD153CD
:1011400092EA0C0F08D142027FF47DAF93EA0C0FB4
:101150007FF470AF084676E793EA0C0F04D14B0298
:101160003FF44CAF08466EE730F0004C18BF31F04A
:10117000004CCAD130F000427FF45CAF31F0004344
:101180007FF43CAF5FE700BF4FF0FF3C06E000BFDD
:101190004FF0010C02E000BF4FF0010C4DF804CD00
:1011A0004FEA40024FEA41037FEA226C18BF7FEA10
:1011B000236C11D001B052EA530C18BF90EA010F12
:1011C00058BFB2EB030088BFC81738BF6FEAE170A1
:1011D00018BF40F0010070477FEA226C02D15FEA3D
:1011E000402C05D17FEA236CE4D15FEA412CE1D0A9
:1011F0005DF8040B704700BF844608466146FFE770
:101200000FB5FFF7C9FF002848BF10F1000F0FBD51
:101210004DF808EDFFF7F4FF0CBF012000205DF84A
:1012200008FB00BF4DF808EDFFF7EAFF34BF0120CF
:1012300000205DF808FB00BF4DF808EDFFF7E0FF68
:1012400094BF012000205DF808FB00BF4DF808EDB9
:10125000FFF7D2FF94BF012000205DF808FB00BF1C
:101260004DF808EDFFF7C8FF34BF012000205DF8FE
:1012700008FB00BF4FEA4002B2F1FE4F0FD34FF020
:101280009E03B3EB12620DD94FEA002343F00043F3
:1012900010F0004F23FA02F018BF404270474FF0A1
:1012A0000000704712F1610F01D1420205D110F028
:1012B000004008BF6FF0004070474FF000007047DB
:1012C000844641EA000313F003036DD1403A41D351
:1012D00051F8043B40F8043B51F8043B40F8043B10
:1012E00051F8043B40F8043B51F8043B40F8043B00
:1012F00051F8043B40F8043B51F8043B40F8043BF0
:1013000051F8043B40F8043B51F8043B40F8043BDF
:1013100051F8043B40F8043B51F8043B40F8043BCF
:1013200051F8043B40F8043B51F8043B40F8043BBF
:1013300051F8043B40F8043B51F8043B40F8043BAF
:1013400051F8043B40F8043B51F8043B40F8043B9F
:10135000403ABDD2303211D351F8043B40F8043B3F
:1013600051F8043B40F8043B51F8043B40F8043B7F
:1013700051F8043B40F8043B103AEDD20C3205D34F
:1013800051F8043B40F8043B043AF9D2043208D047
:10139000D2071CBF11F8013B00F8013B01D30B88B9
:1013A00003806046704700BF082A13D38B078DD097
:1013B00010F003038AD0C3F10403D21ADB071CBF69
:1013C00011F8013B00F8013B80D331F8023B20F8D3
:1013D000023B7BE7043AD9D3013A11F8013B00F80C
:1013E000013BF9D20B7803704B7843708B78837094
:1013F0006046704700000000000000000000000090
:10140000A2EB0300704700BF02780B78012A28BFC7
:101410009A42F5D16DE9044540EA0104CDE902673D
:101420006FF0000C4FEA447212B380EA010414F02A
:10143000070F6AD100F0070420F0070004F003054D
:1014400021F007014FEAC505F0E8042314F0040F6A
:10145000F1E804670CFA05F462EA040266EA04069D
:101460000AD063EA0403624667EA0407664603E0BB
:10147000F0E80423F1E8046782FA4CF582EA0604F6
:10148000A4FA8CF46CBB83FA4CF583EA0705A5FA41
:101490008CF595B950E9022351E9026782FA4CF5BF
:1014A00082EA0604A4FA8CF483FA4CF583EA070571
:1014B000A5FA8CF52543DBD09CB92DBAB5FA85F495
:1014C00024F0070427FA04F1DDE9026723FA04F3A4
:1014D00003F0FF0001F0FF01FDE80445A0EB01006F
:1014E000704724BAB4FA84F424F0070426FA04F10D
:1014F000DDE9026722FA04F202F0FF0001F0FF01C9
:10150000FDE80445A0EB0100704714F0030F3CD147
:1015100010F0030428D150F8082B51F8083B82FA48
:101520004CF582EA0305A5FA8CF55DB950F8042C58
:1015300051F8043C82FA4CF582EA0305A5FA8CF5D1
:10154000002DE8D02DBAB5FA85F424F0070423FA6B
:1015500004F122FA04F202F0FF0001F0FF01FDE8BD
:101560000445A0EB010070474FEAC40420F00300DB
:1015700050F8082B21F0030151F8083B0CFA04F451
:1015800062EA040263EA0403C9E710F003041AD014
:10159000A1EB040120F00300E40750F8042B06D06F
:1015A0000FD28B785FFAA2F4E41A06D12BB1CB7874
:1015B0005FFAB2F4E41A00D11BB920465DF8104B73
:1015C000704701F1040150F8042BCC0721F003010E
:1015D00051F8043B48D824D222F07F4482FA4CF5DB
:1015E00094EA1325A5FA8CF50AD165B951F8043BA4
:1015F00084EA0204B4EB036F0ED150F8042BEBE73E
:101600004FEA132355E035F07F454DD10878FDE8CA
:101610000445C0F1000070474FEA126203F0FF0377
:1016200047E002EA1C4482FA4CF594EA1345A5FA15
:101630008CF50AD165B951F8043B84EA0204B4EB95
:10164000034F0CD150F8042BEBE74FEA134330E083
:1016500015EA1C4528D10B884FEA124229E04FEACF
:10166000124203EA1C4324E002F0FF0482FA4CF524
:1016700094EA1365A5FA8CF50AD165B951F8043BD3
:1016800084EA0204B4EB032F09D150F8042BEBE7F2
:101690004FEA13630DE015F0FF0F05D10B684FEA19
:1016A000122223F07F4304E04FF00000FDE80445E0
:1016B000704712BA1BBA82FA4CF482EA0304A4FA05
:1016C0008CF5B5FA85F402FA04F203FA04F34FEA52
:1016D0001260FDE80445A0EB1360704700000000B5
:1016E000024AD36843F0C003D3607047004400400F
:1016F00001734273704700BF00000000000000004B
:1017000080291AD8402A18D830B4847B14B1B3FA8F
:1017100083F35B09012B11D0D408812313FB04113F
:101720000131084402F00702C37B012101FA02F2F1
:1017300023EA0202C27330BC70477047D508812487
:1017400014FB05110131084402F00702C17B9340EC
:101750000B43C37330BC7047000000000000000062
:101760002DE9F04F87B09CB29DF840A00393DFB203
:101770005FFA82FBC4EBC43698460BEB0702CBB290
:101780007600C4F10104994619460193D2B253463A
:1017900035B224B2059502940546FFF7B1FFABEBD5
:1017A0000702D2B24946284653464C46FFF7A8FFE7
:1017B000E119C9B25A4628465346FFF7A1FFE11B7B
:1017C0005346C9B25A462846FFF79AFF4346002BB4
:1017D0006FDD4FF0000867E0059B029A023312FAB2
:1017E00083F6039A1BB2571E05933BB2B6B203931E
:1017F000FFB208F101081FFA88F3019ADCB202EB8C
:10180000040906EB43065FFA89F90BEB0702013680
:10181000D2B249465346284636B204920296FFF7A2
:101820006FFF019A161BF6B23146049A53462846BA
:10183000FFF766FFABEB0702D2B249465346284694
:101840000492FFF75DFF3146049A53462846FFF79E
:1018500057FF019BDE190BEB0402F6B2D2B2314600
:10186000534628460492FFF74BFF019B049AA3EBD3
:1018700007095FFA89F9ABEB040449465346284649
:10188000E4B2FFF73DFF3146224653462846FFF7B4
:1018900037FF5346224649462846FFF731FF039B50
:1018A0000FFA88F8434504DD029B002B94DA9EB2C0
:1018B0009FE707B0BDE8F08F0000000000000000C7
:1018C0002DE9F04F87B07F2928BF7F21BDF8404028
:1018D0009DF844A07F2B28BF7F233F2A0D4628BFB9
:1018E0003F223F2C214628BF3F219D420193834642
:1018F0001646059135D2A3EB05090FFA89F38A4202
:1019000000937ED3059BD71A4FF0FF330122CDE918
:101910000223009B3FB2BB423FDC07EBD77464104D
:10192000009B644224B2002B3DD1059B9E4200F2F5
:101930009380019B9D4228BF1D46059B9E42ADB2F0
:1019400034B20BD8EDB21E46E2B2013453462946FA
:10195000584624B2FFF7D4FEB442F5DD07B0BDE827
:10196000F08F019BA5EB03090FFA89F30093059B08
:101970009A4208D2059B4FF0FF319F1A0123CDE90F
:1019800002133FB206E0059BD71A4FF0FF330293D4
:101990003FB20393009BBB42BFDD03EBD374009BBC
:1019A0006410002BC1D0002F38D0009B5B425FFA3F
:1019B00086F85FFA85F904935346424649465846ED
:1019C000FFF79EFE019B9D42029BA4EB070205EBE5
:1019D00003011DD0049B9C42039BC4BF8DB25FFAE0
:1019E00081F906EB0301009BCCBF12B22246BC4238
:1019F00002EB030003DA02B28EB25FFA81F81446FA
:101A0000DAE7059B9F1A012302933FB20393C1E7D4
:101A1000059B9E42DED107B0BDE8F08F059B9E423C
:101A200028BF1E46019B9D42B6B202D92A460192AA
:101A30001D46019B9D422CB290D8F6B21D46E1B2E4
:101A4000013453463246584624B2FFF759FEAC42A1
:101A5000F5DD07B0BDE8F08F324605921E4668E717
:101A60002DE9F04F87B0D6B203939DF80C808A46DB
:101A7000934699B29DF840200491C1EBC13C5FFAB6
:101A80008AF713464FEA4C0C06EB08020FFA8CFC5F
:101A9000D2B2C1F101053946CDF814C08146029396
:101AA000FFF72EFE029CA6EB0802D2B2394648464A
:101AB0002346FFF725FE07EB0801C9B23246484628
:101AC0002346FFF71DFEA7EB0801C9B23246484680
:101AD0002346FFF715FE049901941FFA8AFA1FFAAC
:101AE0008BFB01EB0A03AAEB01019BB2CDF800B01E
:101AF00089B25A464846FFF7E3FE039B002B59DDA7
:101B00002DB2002750E0059A039B0232013B15FAE3
:101B100082F59EB212B21BB2ADB2059203930137A9
:101B2000BCB20BEB06020AEB0408029B01931FFAFE
:101B300088F892B2AAEB040189B243460092484663
:101B40000491FFF7BDFE04990298ABEB060292B236
:101B5000CDE900200B4648464146FFF7B1FE0AEBAF
:101B6000060802980BEB0402AAEB060692B21FFAD3
:101B700088F8B6B2CDE90020334641464846FFF723
:101B80009FFEABEB04020298019092B233460092A2
:101B900041464846FFF794FE039B05EB44053FB2E0
:101BA0000135BB422DB205DD002DACDABDF80C606D
:101BB000ADB2B4E707B0BDE8F08F00BF0000000091
:101BC0002DE9F04F89B05E1ABDF84850BDF850407D
:101BD0000294A5EB0208002EB8BF7642B8F1000FC0
:101BE000B8BFC8F100089DF85440039436B20FFA0C
:101BF00088F88B422CBF01234FF0FF330CB2954283
:101C00002CBF01214FF0FF314645BDF84CA0079392
:101C10008346069112B239DB06EBD6750021994650
:101C200007916D10002E2EDB1FFA88F304938BB200
:101C30001FFA89F9059300279046039B0193A4B2EC
:101C4000029B00931FFA88F84246534658462146A5
:101C5000FFF736FE049B5A1915B20137AE4238B26F
:101C600092B208DC079B1C44069B951B98442DB23E
:101C7000A4B21FFA88F8059B4C449844864224B2CB
:101C80000FFA88F8D9DA09B0BDE8F08F374608EBCB
:101C9000D875002306990693464645F34F05B84686
:101CA0009946BFE7000000000000000000000000AF
:101CB0002DE9F04F83B004469DF83C50BDF830B09C
:101CC000BDF83490BDF838A0CDF800B09846019525
:101CD0000E461746FFF7F4FD41465A4620464B464E
:101CE000CDE900A5FFF7ECFD3346204652464946B4
:101CF0000C970D9503B0BDE8F04FFFF7E1BD00BFB5
:101D00002DE9F04F83B07F29BDF830909DF834A0C5
:101D100025D83F2A904622D80B447F2BD8BF9EB2AD
:101D200002EB0903C8BF80263F2BC8BFC2F14009A0
:101D30004FF000050F468346C8BF1FFA89F92C46AD
:101D400008EB040292B20135ECB2CDE9002A334629
:101D500039465846FFF7B4FD4C452546F0D903B047
:101D6000BDE8F08F0000000000000000000000004F
:101D70002DE9F04383B07F29BDF828809DF82C9091
:101D800031D83F2A15462ED80B4490447F2BD4BF20
:101D90009CB28024B8F13F0FD4BF1FFA88F84FF0EF
:101DA00040080E460746CDE900292346FFF788FD87
:101DB0002346424631463846CDE90089FFF780FD8B
:101DC000334631462A463846CDE90089FFF778FD8B
:101DD0002A46384623462146CDE90A8903B0BDE8A4
:101DE000F043FFF76DBD03B0BDE8F08300000000D5
:101DF0002DE9F84F90460546027B98F80000171829
:101E00007F2F43DC98F801401E466B7B23443F2B19
:101E10003CDC8A46B4B3A1F1200B0027D8F80410AB
:101E20000BFB047331F8139040B3002409E0D2B2E5
:101E30003346FFF765FC98F800002A7B01348442A2
:101E40001AD209FA04F002EB040C6A7BB6FA86F3A4
:101E500010F4004F3A445FFA8CF128464FEA5313CE
:101E6000E5D1D2B25FFA8CF1FFF74AFC98F8000096
:101E70002A7B01348442E4D398F801400137A74219
:101E8000CCD317182F735046BDE8F88F0020BDE85B
:101E9000F88F00BF000000000000000000000000FC
:101EA000F8B50C46097881B1074616461D4602E092
:101EB00014F8011F49B12B4632463846FFF798FF08
:101EC00021788842F4D00846F8BD00210846F8BDC4
:101ED000837BB3FA83F35B09837300F11001002362
:101EE00006E0B2F5FE7F02D90A78D2430A700131CA
:101EF00001339BB2C3EBC31203EBC212B3F5816F84
:101F000092B2EED1704700BF000000000000000058
:101F1000D0E903129142034604D04168885C013243
:101F20001A6170476FF00100704700BF00000000A9
:101F3000D0E902239A4206D04268D154C3680133E3
:101F4000C360002070476FF0010070470000000080
:101F50002DE9F04F0B4691B0884613F8011B029211
:101F6000002900F00983824600260CE0DAF8002000
:101F70005046D268013698469047434613F8011BF5
:101F8000002900F0C1802529F0D198F801202D2AE0
:101F900006BF08F102030122002201921A782B2ABF
:101FA00003BF5A780127DB190027302A05BF1546E1
:101FB0005A78202501332A2A40F0AD805A780299B8
:101FC0002E2A51F8044B03F1020800F0BB804FF0B9
:101FD000000B02F0DF034C2B00F0C680A2F1440C92
:101FE0006346342B00F25482DFE813F01B025202E6
:101FF0005202520252021B02520252025202520278
:102000005202190235005202520252025202930049
:10201000520252023500520252025202520252023F
:102020005202520252025202520204021B02520295
:102030005B01520252021B0252025202520252022F
:102040005202190235005202520234015202930028
:1020500052025202350010230A460DF1330952F89C
:10206000047B0292494600E00146BC46B7FBF3F709
:1020700003FB17CE0EF13002392AC8BF0EF137022A
:10208000D2B29C4501F1FF3001F8012CECD20AAB31
:102090000393A9EB000001E011F8012B03F8012BD9
:1020A0004945F9D1DDF80C90241A00F1FF3B019B62
:1020B00024EAE47723B9002CC7F1000700F300827B
:1020C000BBF1000F0DDB0BF101044C44DAF80030DA
:1020D00019F8011BDB6850469847A145F6D1013637
:1020E0005E44002F3FF449AF3C46DAF80030294601
:1020F000DB6850469847013CF7D143463E4413F80D
:10210000011B00297FF43FAF3346184611B0BDE8EC
:10211000F08F0A23A0E703F10108002AF4D000247D
:1021200005E018F8012B03EB4104002AECD0A2F1E2
:102130003003DBB2092B04EB8401F2D92E2A029979
:102140007FF445AF98F80020002ADDD02A2A40F01D
:10215000A48198F8012051F804BB02F0DF034C2B56
:1021600008F102087FF43AAF18F8012B002ACBD00F
:10217000A2F14403342B00F28B8101A050F823F02C
:1021800023240008912400089124000891240008C9
:1021900091240008232400089124000891240008B9
:1021A0009124000891240008912400081F240008AD
:1021B0005720000891240008912400089124000869
:1021C000912400081321000891240008912400089C
:1021D0005720000891240008912400089124000849
:1021E00091240008912400089124000891240008FB
:1021F000912400089124000891240008F523000888
:102200002324000891240008A32200089124000838
:102210009124000823240008912400089124000838
:102220009124000891240008912400081F2400082C
:102230005720000891240008912400085522000826
:10224000912400081321000891240008912400081B
:10225000572000080B4653F8049B0293B9F1000F76
:1022600000F0658199F80020BBF1000F00F071814A
:10227000002A00F07081BBF1010B00F16C814A462D
:1022800002E011EB0B0F05D412F8013FA9EB02019C
:10229000002BF6D1A2EB0902A41A02F1FF3B202584
:1022A00005E7073121F00703F3E802010293FEF787
:1022B000BDFC00218146FEF7B5FF002840F01481E7
:1022C000002F00F055812B238DF828300DF12903C4
:1022D00006930AAB03934846FEF778F90BF1FF3BF0
:1022E000BBF1080FCDE9040100F22A81A84BA94FE8
:1022F00053F82B30079318469B46FEF745F95B468B
:10230000CDE90801A7FB0337FF084846FEF7B2FFF7
:10231000069BDFF880E203F10B0901464A46AEFB5B
:1023200001C3DB0803EB830B9C46A1EB4B0330336B
:102330008B46DBB2BBF1090F02F8013D6146EED8D6
:102340000699A9EB020901EB090C01E012F8013F23
:1023500001F8013B6145F9D1069A2E2309F1FF39B5
:102360004A440B709346FEF71FF902460B46DDE91F
:102370000401FDF7CBFFDDE90823FEF77FF9FEF747
:102380002DFC079B83490BF10D0E092B98BF0746C7
:102390000BF1020372460693A1FB00C3DB0803EBBB
:1023A00083099C46A0EB49033033B946DBB2A1FB5D
:1023B0000707B9F1090F02F8013D60464FEAD70758
:1023C000EAD8AEEB020909F102018B44069901E05B
:1023D00012F8013F01F8013B5945F9D1069B4B44E6
:1023E0009946039BA9EB0309A4EB090409F1FF3B00
:1023F00099465CE60A46013C52F8043B02928DF88D
:1024000028302025019B24EAE4771BB9002CC7F172
:10241000000776DC4FF0000B0DF1280953E6082386
:102420001AE60B4653F8041B0293002960DB002FC9
:1024300000F09B802B238DF828300AAB0DF1290288
:10244000039302F10B0CDFF84CE16046AEFB017325
:10245000DB0803EB83091F46A1EB490330338946B0
:10246000DBB2B9F1090F00F8013D3946EEDCACEB07
:102470000001114401E010F8013F02F8013B8A42DB
:10248000F9D1039BD21AA41A02F1FF3B99460EE63A
:102490008DF82820013C0291B4E708F101084FF0C3
:1024A000000BA2F13003DBB2092B0BEB8B003FF6E4
:1024B00090AD18F8012B03EB400B002AF1D123E675
:1024C0003C4699F800102D2924D0DAF8003029462E
:1024D000DB68504698470137F7D1BBF1000FA6EBF8
:1024E0000406BFF6F0AD48E509F100492D23EBE6FF
:1024F0002D238DF828300AAB49420DF129020393B0
:102500009FE79DF82810DDF804B02D290DF128096A
:102510003C46DAD1302DD8D1DAF800205046D268C6
:10252000904709F1010901360BF1FF3BCDE7DFF8D8
:102530007090BBF1000F7FF49EAE47F6FE7B9EE6E7
:1025400011A3D3E90023CDE90823134B134F0793BD
:10255000DBE6002AF1D1019B24EAE4771BB9002CC9
:10256000C7F100070ADC2025BBE50AAA039268E749
:102570000AAB03930693AEE60B46C6E53C46202520
:102580004FF0FF3B9DE700BF0000000065CDCD414F
:102590008C960008CDCCCCCC00CA9A3B00E1F50566
:1025A0008C7800080000000000000000000000001F
:1025B000202383F311880D4B5B6813F4006302D171
:1025C00083F311887047EFF30983203B4FF080724B
:1025D000DA6183F30988064A11689269896892680A
:1025E00091428CBF034A044A9A61704700ED00E0B3
:1025F00018120020EB020008FE0200080000000094
:10260000202383F31188054AD2F8A0300133C2F8A1
:10261000A030002383F31188704700BF18120020F8
:102620000D4B42685B6870B48B60D0E90261D0E901
:1026300004459B1BE41845F100059342026888BFDE
:10264000436001319342C0E90445C0E9023170BCE6
:1026500038BF0360704700BF001000E000000000BA
:102660000E4A0F4B5268D3F89830816830B4D31AB1
:10267000D0E90445C2685B1A01324168C260E418BF
:102680000268836045F100058B4288BF4360934236
:10269000C0E9044538BF036030BC7047001000E05B
:1026A00018120020000000000000000000000000E0
:1026B0000148FFF7D5BF00BFD8120020000000007E
:1026C000014B5B6883607047001000E00000000071
:1026D0000148FFF7F5BF00BFD8120020000000003E
:1026E000054B1A6B1AB95A6B002A00DD704772B697
:1026F000024ADA62FEE700BF181200209478000850
:10270000054B1A6B002A03DB5A6B002A00DD704769
:1027100072B6024ADA62FEE7181200209C780008BE
:1027200010B5FFF7EDFF074BD3E900424942101AFD
:102730000840A04203D3824201D3586010BD00205C
:1027400010BD00BF30140020000000000000000099
:10275000F8B5FFF7D5FF8368476805681E49022270
:10276000D0E90464C06803F8402C012203F83E2C31
:10277000002243F8501C03F83F2C43E921644C69C4
:1027800043F8580C43F8240C43F8485CA3F1840048
:10279000124D43F8540C43F8645CA3F16000A3F1BC
:1027A000380543F84C4C43E90B2243F8447C4FF086
:1027B000FF3620614861002443F8385CA3F13401FE
:1027C000002543E9052243E90D1143F80C2C43F899
:1027D000186C43E90245F8BD18120020D102000828
:1027E00008B5FFF78DFF00228168064B80F8202096
:1027F0001B689A688A42FBD25A68C0E900321060AE
:10280000586008BD18120020000000000000000001
:10281000F8B5FFF775FF0468A04223D005460F46C0
:10282000002604E00B2A1ED02468A5421AD0E368D3
:102830003B43E36017B123691F42F5D06068FFF79F
:102840005FFFA368416B90F820200B430A2A436383
:10285000E8D1426A1342E7D04662FFF7C1FF24681D
:10286000A542E4D1F8BD426A32EA0303DCD1F3E7C2
:102870000346006820B100221A604162FFF7B0BF32
:10288000704700BF000000000000000000000000D2
:10289000202383F31188074B1A6B002A01DD596B43
:1028A00019B172B6044ADA62FEE7013A1A6381F39B
:1028B0001188704718120020A4780008000000005A
:1028C000202383F31188074B1A6B002A01DB596B15
:1028D00019B172B6044ADA62FEE701321A6381F373
:1028E0001188704718120020AC7800080000000022
:1028F000064B1A6B002A05DD5A6B002A02DD002206
:102900005A63704772B6024ADA62FEE71812002074
:10291000B478000800000000000000000000000083
:10292000064B1A6B002A01DD5A6B1AB172B6044AC3
:10293000DA62FEE701225A63704700BF18120020D6
:10294000BC7800080000000000000000000000004B
:1029500008B50146202383F31188FFF7B9FEFFF77E
:10296000DFFF91F82030072B0FD8DFE803F0140EBB
:102970000E1C0A040E0A486AFFF7C2FE8368013380
:102980008360D1E9003213605A604FF0FF334B622D
:102990000846FFF725FFFFF7ABFFFFF789FE00238F
:1029A00083F3118808BD4B6A00221A60EDE700BF6F
:1029B000FEE700BF00000000000000000000000073
:1029C000836970B51A69DC681440E2B2D243A60785
:1029D00005461A6103D543681B6903B19847600730
:1029E00004D56B689B690BB128469847210704D52D
:1029F0006B681B6A0BB128469847E20604D56B68E2
:102A00009B6A0BB128469847E30706D56B689B681D
:102A10001BB12846BDE87040184770BD000000009B
:102A200011F00C0F15D1D0E90C100A68136823F0CF
:102A30001F0310B413601368DB07FCD44C7A4A6898
:102A40003D23A3401360436810BC43F4007343600C
:102A5000704772B6014B024ADA62FEE71812002094
:102A6000C478000800000000000000000000000022
:102A700011F00C0F30D170B50546C06A6A6B03685F
:102A8000196821F01F0119601C6814F00104FBD1C2
:102A9000467A41683D23B3400B60536823F480536A
:102AA0005360136823F480631360136843F4007366
:102AB0001360202383F31188FFF70AFEFFF730FF2E
:102AC000214605F11C00FFF7D3FEFFF711FFFFF7CA
:102AD000EFFD84F3118870BD72B6024B024ADA62D0
:102AE000FEE700BF18120020C478000800000000B4
:102AF0002DE9F04F02F00309C2F34115CC46C2F3B1
:102B00008007C2F3C1064FEAD21E00244FF00F0B1C
:102B1000A84616E0D0F800A003EA0A0343EA0C0333
:102B2000072C036042D8036A23EA020215430562B8
:102B3000490839D07F00B6004FEA88084FEA8C0C6C
:102B40000134CB07F4D543680122A24023EA0203F3
:102B50003B43436082680325630005FA03F322EADE
:102B6000030232438260C56804F0070225EA0305C8
:102B700045EA08059200B9F1020FC5606FEA030348
:102B80000EFA02F50BFA02F2C4D1072C14D8D0F8D1
:102B900020A02AEA0202154305620268134043EAB4
:102BA0000C0349080360C5D1BDE8F08F436A23EAEE
:102BB000020215434562BBE7D0F824A02AEA0202CC
:102BC00015434562E9E700BF000000000000000077
:102BD000F0B4324E044601253068A540054218BFC6
:102BE000002001D0F0BC704706EBC40C28432C4FEA
:102BF000306015F0FF0F04EB4400CCF80420CCF853
:102C0000083007EB80004FEA440609D0254B1A6BC9
:102C100042F400121A631A6D42F400121A651B6D19
:102C200015F47F4F2FD1331957F82320136823F061
:102C30001F031360136813F00103FBD1344407EB47
:102C400084043D26E57A677AD4F804C06C09A400B0
:102C5000BE4004F1604405F16047CCF8006004F523
:102C600061440126090107F5614705F01F0506FAD1
:102C700005F5C9B221261360566187F80013C4F820
:102C800080512560AEE7074B1A6B42F480021A634D
:102C90001A6D42F480021A651B6DC4E760140020AF
:102CA0002C950008003802400000000000000000E1
:102CB000F8B50678456B012E044645D02B46D4E97D
:102CC0000B1260680F68D2F800C04168534E05F1DE
:102CD0001002BA604FF41064CCF808204FF400479B
:102CE00000222F602A606C605C684FF6C0773C4021
:102CF000077A5C605C68B14244F02A045C6017DCCF
:102D00002B24474A1C62490092FBF1F2C2F30B02EA
:102D1000DA6101781A68022992B261D003295CD085
:102D2000012956D01A602B6843F001032B60F8BDCF
:102D30003C4CA142ECDC022F58D0032F61D048F666
:102D4000FF720D211962E3E7374B40F2164240F261
:102D500056419842C0E90921B0D1344F3B6A43F44F
:102D600000133B623B6A23F400133B62FFF7C8FC8D
:102D70002F4A396A034605210020FFF729FFE06248
:102D8000FFF7BEFC2B4A234605210620FFF720FF54
:102D90003B6C206343F400133B64396E264B274899
:102DA00041F40011396650224FF000413F6E83F824
:102DB0001F23C3F88011196083F82023C3F88461AE
:102DC0005E60D4E9091201430243C4E90912636B4E
:102DD00075E722F00A0292B2A4E742F00A02A1E7E4
:102DE00022F0080292B242F002029BE70C4A01EB89
:102DF0004101B2FBF1F26FEA42426FEA524292B2F3
:102E00009FE701EB810202EB8201054AB2FBF1F27E
:102E10006FEA82426FEA924292B292E7A086010084
:102E200080DE8002801A0600D40C002000380240A8
:102E3000712A0008212A000800E100E000000302D6
:102E400030B4C46A2268136823F01F031360136848
:102E500013F00103FBD1657A826A60683D21A940C5
:102E6000016053609368012123F08043936030BC7C
:102E700091607047000000000000000000000000AA
:102E800011F00C0F10B504460FD1036963B18A0627
:102E90002DD51A78002A37D05B682BB10422027036
:102EA00098472378042B46D010BDFFF7C9FF23694C
:102EB0009B6823B30522227000212046984723787F
:102EC000052B1CD0202383F31188FFF701FCFFF7AB
:102ED00027FD04F114004FF0FF31FFF7C9FCFFF7A5
:102EE00007FDFFF7E5FB002383F3118810BDCA0639
:102EF000DAD55B68002BD7D0BDE810401847022216
:102F0000002322702361DDE7FFF79AFF23695B68E6
:102F1000A3B104222270204698472378042B0DD0B9
:102F2000202383F31188FFF7D3FBFFF7F9FC04F1AB
:102F300014000021D1E70323237010BD02220023D7
:102F400022702361ECE700BF0000000000000000D9
:102F5000002070470000000000000000000000009A
:102F600070B5194D0446FFF7BBFBAE698368B168C5
:102F700000208B42606204D82046BDE87040FFF715
:102F80002FBCFFF7BDFB2B4686F820001B689A6814
:102F90009142FBD35A6872600121336016605E6013
:102FA00084F82010D5F8A430AC610B4406F1480039
:102FB00004F14801C5F8A430FFF732FB3146204642
:102FC000BDE87040FDF77CB9181200200000000039
:102FD00038B50F4CFFF784FBA569216885F8200000
:102FE0000B68236001225C6081F82020D4F8A430B3
:102FF000A161134405F148004831C4F8A430FFF73B
:103000000FFBA0692946BDE83840FDF759B900BF5C
:103010001812002000000000000000000000000066
:1030200038B5104B9C69A36A606204F12805AB4275
:1030300007D01A68A2621846FFF7D2FBA36AAB4218
:10304000F7D194F822303BB994F821309B0703D193
:10305000D4E9043213615A61BDE838400F20FFF70C
:10306000B7BF00BF181200200000000000000000E1
:10307000F0B587B0FFF734FB4B1C4DD0414C424EAE
:10308000FFF73EFB2546022955F81C3FA269059231
:103090004FF0804738BF0221AB427A6A04965ED077
:1030A000A66A921B891831D39E681B689A68891B8F
:1030B000914204D91B68891A9A688A42FAD35A68DD
:1030C000029201AE019316605E6003919A68511AF4
:1030D0004FF0FF3299606262FFF77AFFFFF710FB53
:1030E000049B7BB1FFF70CFBE369B3421BD0DDE926
:1030F00001321360019BAB425A6003D09A68039976
:103100000A449A60A369586A07B0F0BD9A68914270
:10311000CED20E447E63CBE71A4CFFF759FFA3696A
:10312000586A07B0F0BD019BE3610022AB425D60CD
:10313000049222D09A680398A16A02444FF080401A
:103140009A60436A581A8242DCD9CB1A1344012B85
:1031500098BF821C4FF080430A445A63D2E78B1811
:1031600001AEA262CDE90155C4E9076603910022D0
:103170007B6302233A61FB60AEE74FF08043DA6085
:10318000C0E700BF1812002051290008000000000D
:1031900061B1084A10B4926944680346C2E9003438
:1031A0000420226010BC5A60FFF762BF4FF0FF306E
:1031B000704700BF1812002000000000000000004F
:1031C0000CB430B587B00AAA0B4D0C4852F8041B5A
:1031D00001901323002401A8CDE90253CDE9044452
:1031E0000092FEF7B5FE049B132B98BFEC5407B07A
:1031F000BDE8304002B07047F8110020F497000895
:103200000EB400B582B003AA52F8041B0192FEF777
:103210009FFE02B05DF804EB03B0704700000000B1
:1032200039B90548054A064B016001201060196054
:1032300070470449FFF7E4BFEC1400205C14002041
:10324000F4140020D0780008000000000000000006
:10325000012903D0034A0449FFF7D2BF126803498A
:10326000FFF7CEBFE0780008F0780008FC7800088F
:1032700000292EDC10B5194A194982B00446FFF71F
:10328000BFFF184A18492046FFF7BAFF174A1849E6
:103290002046FFF7B5FF174A17492046FFF7B0FF52
:1032A000164A17492046FFF7ABFF164A1649204633
:1032B000FFF7A6FF154A16492046FFF7A1FF154B59
:1032C0000093154A154B16492046FFF799FF02B0A7
:1032D00010BD144A1449FFF793BF00BF0C790008D2
:1032E0001479000828790008687900087C790008BA
:1032F000887900089C790008A8790008BC79000842
:10330000D4790008E8790008147A0008287A0008BF
:10331000547A0008907A00086C7A0008687A0008ED
:10332000787A000804790008F078000800000000AE
:10333000012970B5054614D116680C4630460D4972
:10334000FEF762F840B90C4B1C600C490C4B012095
:10335000002208601A6070BD0A493046FEF754F832
:1033600028B128460849BDE87040FFF749BF024B25
:103370001860EAE79C7A0008F8140020F414002092
:103380005C140020A07A0008A47A00080000000065
:10339000012938B5044610D115682B78582B12D066
:1033A00012492846FEF730F8B0B9114B1860114A9F
:1033B000114B146001221A6038BD20460F49BDE848
:1033C0003840FFF71DBF6B78592BE9D1AB78002B44
:1033D000E6D1074B1960EAE709492846FEF714F8D9
:1033E0000028EAD1044B186038BD00BFBC7A000841
:1033F0000C12002050150020EC140020C87A0008A0
:10340000C47A000800000000000000000000000076
:103410000029F8B50CBF0027FF2700F1100400F5C4
:103420008365402604F8016C2046802239468134A9
:1034300004F032F9AC42F5D1F8BD00BF0000000045
:1034400070B50D46B8B1044628601249204604F014
:10345000F7F9215C222904EB000612D00D49304611
:1034600004F0D2F998B1421C00232A60037033782B
:1034700023B1304670BD0C68002CE6D100263046E2
:1034800070BD0136304604F057F90028EBD12860B2
:10349000EDE700BFE07A0008000000000000000037
:1034A000F8B5D0E903369C1B4768944228BF144600
:1034B000054622460846B919FDF702FF2B69234449
:1034C0002B612046F8BD00BF000000000000000096
:1034D00070B50546D0E902301C1A94426E6828BFC8
:1034E000144630442246FDF7EBFEEB682344EB60C4
:1034F000204670BD00000000000000000000000039
:10350000EFF30983203383F30988002383F31188C1
:10351000704700BF00000000000000000000000035
:103520000148FFF79DB800BFC01200200000000056
:103530000148FFF7C5B800BFC0120020000000001E
:1035400038B5154C2368A5691968216001224C60C3
:1035500083F82020A361FFF7D3F80023AA6885F839
:10356000203000E009688B689342FBD84B68C5E9BE
:1035700000131D604D60D4F8A430A169013305F13A
:1035800048004831C4F8A430FFF74AF8A06929463A
:10359000BDE83840FCF794BE18120020000000007F
:1035A000054B1A6B22B9596B002901DD5A6370472C
:1035B00072B6024ADA62FEE718120020E47A0008C6
:1035C000054BD3E90C120A4302D101225A6370471A
:1035D00072B6024ADA62FEE718120020EC7A00089E
:1035E0002DE9F8434900002501848560446B80463D
:1035F00016461F46FFF7D4FFFFF792FF85F31188A9
:10360000D8E90B3210681968D8F828300360D8F868
:103610002430C6604FF0804647600B60CD604D603F
:10362000D6F82490202705E0FFF7BAFFFFF778FFD0
:1036300085F3118887F31188FFF77AFFFFF7C0FF42
:10364000A3699A0702D423689B0527D5736AA3EB65
:103650000903B3F5FA7FE7D3D8F83000026813689E
:1036600023F01F0313601368DC07FCD4D8F82C1078
:10367000447A40680A683D23A3400360136823F03E
:103680001F0313601368D807FCD4487A4A683D23A7
:10369000834013604FF0FF30BDE8F88363681A4938
:1036A00043F40073636022688869434642F4807281
:1036B000226043F81C0F4FF0FF3143620320FFF7F5
:1036C000D7FC0028E8D0D8F830402268136823F0EF
:1036D0001F0313601368D907FCD4D8F82C10657A3F
:1036E00064680A683D23AB402360136823F01F031E
:1036F00013601368DB07FCD44C7A4A683D23A3406F
:103700001360BDE8F88300BF18120020000000001D
:10371000F8B51F4606460C461546202383F311884C
:10372000603C3444FFF704FFFFF74AFF1C4A226164
:103730001C495369E563A56044F8041C02201A493A
:10374000E6610125208484F82250A161002504F15E
:103750002800A4F124064FF0FF31636144F8247C73
:10376000E66044F8205CC4E90D551C6104F12C03AB
:10377000A062A16400200021C4E91601C4E90B3352
:103780002046C4E9135565655461FFF7E9FBFFF76F
:1037900007FFFFF7C5FE85F311882046F8BD00BF7F
:1037A00018120020D1020008F47A0008000000007E
:1037B00070B51A4B0C4606464FF4B47118481546BE
:1037C0008222FFF7A5FF174B174881224FF4B471EF
:1037D000FFF79EFF022C08D16D6814492846FDF7BB
:1037E00013FE40B9124B186070BD30461149BDE858
:1037F0007040FFF705BD10492846FDF705FE40B1B2
:103800000E492846FDF700FE0028EED1084B1C604B
:1038100070BD074B03221A6070BD00BF414600080F
:10382000C016002091590008781C0020FC7A00087E
:1038300000080020107B0008007B0008087B0008BF
:1038400008B5202383F31188FFF772FEFFF7B8FE57
:1038500004480021FEF7DCFFBDE808400020FFF728
:10386000DFBB00BF4C15002000000000000000007E
:103870002DE9F04FDFF830920768D9F81830416829
:103880007B4A9A619BB00090019138467949FFF7D5
:10389000B7FC79493846FFF7B3FCD9F8183093F8EC
:1038A00021305A077AD4DFF804A2DFF8C8B10AAE93
:1038B00051463846FFF7A4FC009B1C683546236838
:1038C00001229B680DF10F0120469847002875D012
:1038D0009DF80F1004296DD008290DF1670310D051
:1038E0007F290ED00D2920D01F29E8D99D422046DE
:1038F000E5D22368DB6898479DF80F3005F8013B57
:10390000DDE7B5424FF008012046D8D02368DB68D8
:10391000984723682021DB682046984723680821C0
:10392000DB682046013D9847C9E7204659464FF0DD
:103930000008FFF765FC85F8008004A93046FFF712
:103940007FFD04A90446002005ADFFF779FD60B1B5
:10395000B8F1040F27D045F8040B04A9002008F1A2
:103960000108FFF76DFD0028F2D11AAB03EB8802C6
:1039700042F8540C64B141492046FDF745FD50BB67
:10398000B8F1000F38D03D4A3D493846FFF738FCC2
:10399000D9F8183093F821305B0789D5FFF750FF2D
:1039A0001BB0BDE8F08F37493846FFF729FC0023EC
:1039B0000993EDE734492046FFF722FC2D493846AC
:1039C000FFF71EFC31493846FFF71AFCFFF738FFB6
:1039D0001BB0BDE8F08F2E4D2E4802E055F8080FC1
:1039E00000B32146FDF710FD0028F7D16C6805AA49
:1039F00041463846A047CBE72749254C274D384656
:103A0000FFF7FEFB234A29463846FFF7F9FB54F837
:103A1000082F002AF7D1019CE4B959463846FFF730
:103A2000EFFBB5E7019D5DB1286818B908E055F8CE
:103A3000080F28B12146FDF7E7FC0028F7D1D5E7AC
:103A4000174922463846FFF7DBFB16493846FFF791
:103A5000D7FB9DE72268002ADFD0104D2946384663
:103A6000FFF7CEFB54F8082F002AF7D1D5E700BFA7
:103A7000447B0008B07C00084C7B00088C7B00086D
:103A8000F0780008747B0008687B00086C7B0008F5
:103A9000389700083C7B0008947B0008A47B000852
:103AA000A87B0008AC7B000818120020607B00088F
:103AB000002901DCFFF7C4BE014A0249FFF7A0BBA1
:103AC0003C7B0008F07800080000000000000000C7
:103AD00070B5202305460C46164683F31188FFF780
:103AE00027FDFFF76DFDFEF70BFE0B49D1E9003016
:103AF0006442451B2C40A61B9E420BD3B04209D307
:103B00004E60FFF74DFDFFF70BFD002383F3118897
:103B1000204670BD0024F4E73014002000000000AF
:103B20002DE9F047202484F31188FFF701FDFFF70A
:103B300047FDFEF7E5FD764B76481861D3E90B1299
:103B4000032018700968744F9F601025DD60CF60F6
:103B50004C600A600C68714D9A6AAD6944F00104CA
:103B60000C6000244FF480111460D460146154621E
:103B70009462D1628121146351636949516040F2BA
:103B80000331916001F18041916043F8145F4FF07F
:103B9000FF316B62FFF76CFAFFF702FDFFF7C0FC25
:103BA00084F3118800252E4609E0FDF749F9014606
:103BB0003046FDF791F80134102C06460DD0E3078E
:103BC00037F81400F1D5FDF73BF901462846FDF71B
:103BD00083F80134102C0546F1D130464FF078516E
:103BE000FDF782F94F49FDF733FA0146FDF774F806
:103BF0004FF07E51FDF76EF84B4B04461C604FF0C2
:103C000078512846FDF770F901464648FDF762F8FD
:103C10004449FDF71DFA0146FDF75EF84FF07E516D
:103C2000FDF758F8414B054618602046FCF7CEFCDE
:103C3000064628460F46FCF7C9FC324680468946B0
:103C40003B4630463946FCF719FD424606460F46CC
:103C50004B4640464946FCF711FD0B4602463946A5
:103C60003046FCF755FB03F055FBFCF7DFFF304B0C
:103C70004FF0000A0646186051462046FDF7C8FA84
:103C800020B951462846FDF7C3FA30B129492A4ADE
:103C900000230B601360BDE8F08720463146FDF736
:103CA0001BF801462846FDF7D3F9FCF78FFC03F01B
:103CB00083F902460B46FCF72BFBFCF7B7FF1D4BC5
:103CC00004461C603046FCF781FC0DA3D3E90023B9
:103CD000FCF746FF20B1184BC3F800A0BDE8F08701
:103CE0002046FCF773FC08A3D3E90023FCF7C6FCCD
:103CF000FCF79CFF104C2060BDE8F087AFF300801C
:103D00009A9999999999B93FF8C1631ADCA54C40E1
:103D1000A00C0020EC9500080C15002018120020C3
:103D20000001000400F07F45101200201412002052
:103D3000FC14002000150020581400200000000092
:103D4000002919DC38B50446202383F31188FFF7D6
:103D5000EFFBFFF735FC4FF080435D6AFFF720FC77
:103D6000FFF7DEFB002383F3118805492A4620462E
:103D7000BDE83840FFF744BA024A0349FFF740BAAA
:103D8000BC7B0008B47B0008F0780008000000004D
:103D9000F8B5204E0446B769202383F31188FFF756
:103DA000C7FBFFF70DFCE168B963FEF799FC2068DB
:103DB00084422CD0FD6B59B1FEF792FC0B689942FE
:103DC00003D09B689D4238BF1D46C9680029F3D1C6
:103DD0000368826BBD6023605C60C4E90202846397
:103DE000FEF7FEFCFEF77CFCFEF78AFC3268B36946
:103DF00092689B689A4207D8FFF7D2FBFFF790FBC7
:103E0000002383F31188F8BDFFF79AFBF4E7002342
:103E1000A360F1E71812002000000000000000007D
:103E200070B52023054683F31188FFF781FBFFF768
:103E3000C7FB314B9C69FEF753FCA86860B3A268CE
:103E40008368934207D290F820308260062B3BD0E3
:103E5000072B26D0CBB12B4603E09968A26891428C
:103E600002D31B689D42F8D15A680620C4E900328B
:103E700014605C606562FFF7ABF8FFF791FBFFF73A
:103E80004FFB002383F3118870BDD0E9003213602B
:103E90005A60FEF7A5FCDEE7A36BC5E90243A56304
:103EA000EBE7D0E90031466A0B605960334602E027
:103EB0009968914202D31B689E42F9D15A68C0E9C1
:103EC000003210605860C6E7D0E90031466A0B60E6
:103ED0005960334602E09968914202D31B689E42C2
:103EE000F9D15A68C0E9003210605860B068A26821
:103EF00083689A42A7D8AEE718120020000000009D
:103F00002DE9F04383B083688DF8051000268DF805
:103F10000460044618680C30FFF782FFA3684FF076
:103F20002009D3E9005789F31188FFF701FB4FF00F
:103F30000208FFF745FB28466F60FEF7B9FE85F8DB
:103F40000080FFF72DFBFFF7EBFA86F31188A368DB
:103F50001F681D7A89F31188FFF7EAFAFFF730FB33
:103F60000322294643463A70BE6001AA3846FFF74D
:103F700037FB431C14BF434605233B700546FFF740
:103F80000FFBFFF7CDFA86F31188A36818680C3091
:103F9000FFF7FEFE284603B0BDE8F08300000000F6
:103FA00038B50D468D210446FFF7AAFF002D14BF3A
:103FB000142110212046FFF7A3FF2046AE21BDE8C3
:103FC0003840FFF79DBF00BF000000000000000068
:103FD0002DE9F84F044600F10F0700F2174AB0250B
:103FE0004FF000084FF0200929462046FFF788FFD0
:103FF00000212046FFF784FF10212046FFF780FFB5
:10400000A36818680C30FFF70BFFA368D3E9006BB7
:1040100089F31188FFF78CFAFFF7D2FA3046C6F819
:1040200004B0FEF745FE02233370FFF7B9FAFFF73D
:1040300077FA88F31188A3681E6893F808B089F3AB
:104040001188FFF775FAFFF7BBFA032359463A4682
:104050003370C6F8088081233046FFF7C1FA01307B
:104060000CBF052302233370FFF79AFAFFF758FAC3
:1040700088F31188A368186881370C30FFF788FE31
:104080000135BA45EDB2AFD1BDE8F88F00000000B0
:10409000002933DCF8B51D4C054604F10C00FFF790
:1040A000BFFE636873B3002422462746D3E900317C
:1040B0008C4207F101070A4438BF0C46002BF5D1AA
:1040C000D600E4001248FFF763FE124B1249D3E911
:1040D00000322846D21AFFF793F83A460F4928468D
:1040E000FFF78EF832460E492846FFF789F8224638
:1040F00028460C49BDE8F840FFF782B80A4A0B4948
:10410000FFF77EB81C461E461F46DBE73C14002026
:104110004814002030140020C87B0008E87B000809
:10412000007C0008207C0008C47B0008F0780008B0
:1041300010B52023044683F31188FFF7F9F9FFF740
:104140003FFA21460820FEF793FFFFF729FAFFF711
:10415000E7F9002383F3118810BD00BF00000000C1
:104160002DE98848314B324C9B69324A9A61324E74
:104170002368324DDFF8E0B0DFF8E0A0DFF8E09030
:10418000DFF8E0802E4F0BE02E492868FFF738F863
:104190002368012B10D042F21070FFF7C9FF23688B
:1041A000012BF8D13368002BEED127492868FFF79F
:1041B00027F82368012BEED1FFF7B2FC3368FBB17F
:1041C000DBF80000FCF702FA02460B462868394685
:1041D000FFF716F8DAF80000FCF7F8F902460B468C
:1041E00028681A49FFF70CF844F62060FFF7A0FF93
:1041F0002368012BCFD1FFF793FC3368002BDFD16D
:10420000134B1868FCF7E2F902460B46286849464A
:10421000FEF7F6FF0F4B1868FCF7D8F902460B467D
:1042200028684146FEF7ECFFDEE700BF18120020C9
:10423000EC140020407C00080C12002050150020D7
:10424000787C0008447C0008607C00088C7C0008B6
:10425000FC1400205814002010120020141200201A
:10426000A07C0008B47C00080000000000000000F2
:104270002DE98048A64BA74A9B69DFF8C4A2DFF866
:10428000DCB2A54F9A6183B00024A8E0A34A0023C2
:104290001360A34A1360A34A1360DAF800300122C6
:1042A0001B690021204698479F4A14212846FEF7A3
:1042B00087FFDAF800309D4AD3F818802946012399
:1042C0002046C047DAF8003020461B689847DAF8E5
:1042D000003014221B69002120469847904B186833
:1042E000FCF774F9924ACDE9000114212846FEF743
:1042F00067FFDAF800202946D2F8188001233246F9
:104300002046C047DAF8003020461B689847DAF8A4
:10431000003023221B690021204698477F4A1068FD
:10432000FCF754F9834ACDE9000114212846FEF731
:1043300047FFDAF800202946D2F8188001233246D8
:104340002046C047DAF8003020461B689847DAF864
:10435000003032221B6900212046984771490868C5
:10436000FCF734F9744ACDE9000114212846FEF720
:1043700027FFDAF800202946D2F8188001233246B8
:104380002046C047DAF8003020461B689847644B47
:1043900039461868FCF75AFF68B9604A3946106810
:1043A000FCF754FF38B95F4B39461868FCF74EFFED
:1043B000002800F01C81012260481146FEF798FB9E
:1043C0004FF001030383C820FFF7B2FEDBF8003093
:1043D000012B12D0012442F21070FFF7A9FEDBF886
:1043E0000030012BF7D12CB9DAF8003054489B6823
:1043F00021469847524C534D534EFFF791FB534B78
:104400001868FCF7E3F836A3D3E90023FCF7B2FB06
:1044100000287FF43BAF4E4B1868FCF7D7F832A367
:10442000D3E9002380468946FCF7AEFB28B330A3CE
:10443000D3E9002340464946FCF79CFBE8B12EA394
:10444000D3E9002340464946FBF762FF2CA3D3E99A
:104450000023FCF73DFA00223E4BFCF70FF9FCF776
:10446000E5FB2F4B014618603B48FCF733FC2D4A17
:1044700010602A4A002313600FE71BA3D3E900232F
:1044800040464946FCF776FB002869D01EA3D3E9D5
:10449000002340464946FCF777FB002860D018A36C
:1044A000D3E9002340464946FBF732FF10A3D3E986
:1044B0000023FCF70DFA0022264BFCF7DFF8FCF78F
:1044C000B5FB184B014618602348FCF703FC134A60
:1044D0001060134A00231360DFE600BFAFF30080D3
:1044E0009A9999999999B93F48E17A14AE47E9BFE9
:1044F0001F85EB51B81EF93F48E17A14AE47E93FFA
:10450000E17A14AE47E10240E17A14AE47E102C01D
:1045100018120020CC7C00080000C242E8140020E1
:1045200008150020F4110020D47C000870970008C2
:10453000E07C0008F87C0008107D000800000240C4
:10454000D80D0020F811002078970008FC140020F6
:1045500000150020000059400000C8425C140020F3
:1045600027A3D3E9002340464946FCF70DFBF0B1F1
:1045700023A3D3E9002340464946FBF7C7FE20A307
:10458000D3E90023FCF7A4F91FA3D3E90023FCF728
:1045900075F8FCF74BFB244B014618602348FCF7E9
:1045A00099FB234A1060234A0023136075E618A381
:1045B000D3E9002340464946FCF7DCFA00283FF4E3
:1045C0006CAE15A3D3E9002340464946FBF7A0FE95
:1045D00013A3D3E90023FCF77BF9174B0022FCF768
:1045E0004DF809A3D3E90023FBF792FED1E701229E
:1045F00012481146FEF77CFA4FF001034383E2E6CE
:104600001F85EB51B81EF93F0000000000C050406C
:10461000E17A14AE47E102C01F85EB51B81E094094
:10462000F6285C8FC2F5E83FE81400200000C8427D
:1046300008150020F41100200080404000000240D6
:1046400008B51E4B1E4A9B691E489A6140214FF4D3
:104650009172FEF74DFA1B481B4D4FF49172802169
:10466000FEF746FA194A1A4B116C41F00401116425
:10467000116E41F0040111660320126E9860002152
:104680004FF6FF7401224CF2C11019620E46DC6233
:1046900098611C4659625A611A60626A2B68B3EBD2
:1046A000920F4FF47A7005D0636A9B08242B2B601D
:1046B00088BF6662FFF73CFDEFE700BF18120020DD
:1046C000287D000800040240381400200038024011
:1046D0000008004000000000000000000000000092
:1046E0002DE980488E4B8F4E9B698F4C8F4A9A6183
:1046F000DFF880823368DFF8809283B02546012B93
:1047000005D0C820FFF714FD3368012BF9D12368C9
:10471000874F9B68002128469847D8F800A00223BD
:10472000BAF1010F3360236800F094801B69012205
:104730000021284698473A4614217E48FEF740FD5E
:1047400023687D4A7B49D3F818A028460123D04727
:10475000236828461B689847FFF7E2F9236814226C
:104760001B69002128469847D9F80000FBF72EFF67
:10477000724ACDE9000114216E48FEF721FD23683D
:104780006F4AD3F818A06B4901232846D0476D4BD8
:104790001868FBF71BFF6C4ACDE90001142165483E
:1047A000FEF70EFD2368664AD3F818A0614901237D
:1047B0002846D047236828461B6898472368232249
:1047C0001B69002128469847604B1868FBF7FEFEDE
:1047D0005F4ACDE9000114215648FEF7F1FC236839
:1047E000574A5449D3F818A028460123D0472368D4
:1047F00028461B689847236832221B6900212846F7
:104800009847544B1868FBF7E1FE534ACDE9000185
:1048100048481421FEF7D4FC2368494AD3F818A06D
:10482000444901232846D047236828461B689847F7
:10483000236828461B689847C820FFF779FC33682F
:10484000022B7FF45CAFD8F800A02368BAF1010F07
:104850007FF46CAF1B6952460021284698473F4AB7
:1048600034481421FEF7ACFC23683249324AD3F8AD
:1048700018B028465346D847236828461B689847EF
:10488000374B1968002979D1364B1B6913F0400367
:1048900000F0E080236814221B6928469847324ABA
:1048A00024481421FEF78CFC23682249244AD3F8BB
:1048B00018B028465346D847236828461B689847AF
:1048C000284B1969236811F4807100F0BD80232200
:1048D0001B69002128469847244A16481421FEF7F0
:1048E0006FFC23681349164AD3F818A02846012301
:1048F000D047236828461B6898471A4B19692368D4
:1049000011F4007100F0968028461B6932220021C4
:104910009847174A07481421FEF752FC7CE700BF6E
:1049200018120020F4140020D80D0020307D00085B
:10493000187E0008F811002070970008287E0008F3
:104940007897000814120020347E0008FC14002020
:10495000407E000858140020507E00083C7D00086E
:10496000F014002000080240487D00086C7D00081B
:10497000987D0008F8140020101200206A4BD3F82C
:1049800000A0BAF1010F6DD0684BD3F800A0BAF1C6
:10499000010F00F0A380664BD3F800A0BAF1010F1D
:1049A0007FF446AF236814221B69002128469847EC
:1049B000604A61481421FEF703FC23685F4AD3F87C
:1049C00018B05D4953462846D847236828461B68D7
:1049D0009847236823221B69002128469847584A94
:1049E00055481421FEF7ECFB2368544A5249D3F88A
:1049F00018B028465346D847236828461B6898476E
:104A0000236832221B690021284698474D4B4E4AA5
:104A10001B6849481421FEF7D3FB2368474AD3F8A3
:104A200018B0454953462846D847236828461B688E
:104A30009847FDE628461B6932229847434A3E487C
:104A40001421FEF7BDFBE7E623221B6928469847A1
:104A50003F4A42E7226819462846136914229847BC
:104A6000344A1DE7236814221B6900212846984711
:104A7000344B384A1B6830481421FEF7A1FB2368E9
:104A80002E4A2D49D3F818B028465346D8472368F4
:104A900028461B68984723682322002128461B6963
:104AA0009847274A24481421FEF78AFB2368234AA3
:104AB000D3F818B0204953462846D84723682846DB
:104AC0001B689847236828461B69322200219847B3
:104AD0001E4A19481421FEF773FB9EE723682846F7
:104AE0001B69142200219847124A13481421FEF72B
:104AF00067FB2368114AD3F818B00F49534628467C
:104B0000D847236828461B689847236828461B69AE
:104B10002322002198470B4B0F4A1B68064814219B
:104B2000FEF74EFBC2E700BF04150020E41400208E
:104B3000F0110020587D0008F81100207897000837
:104B4000D47D0008F0140020047E0008AC7D00082D
:104B5000807D0008C07D0008EC7D0008000000009A
:104B600010B52023044683F31188FEF7E1FCFEF71D
:104B700027FD2046BDE81040FEF752BA00000000B5
:104B8000F8B50446202585F31188FEF7D1FCFEF721
:104B900017FD94F82230013B84F82230236A03F099
:104BA000FF130F2B07D0FEF7FBFCFEF7B9FC002329
:104BB00083F31188F8BDD4E904231A612269536193
:104BC000FEF7EEFC0026FEF7ABFC86F3118894F8A6
:104BD000213003F00303012B15D0022BEAD1276CFF
:104BE000E46985F31188FEF7A3FCFEF7E9FCFDF705
:104BF00087FD3B6823603C60FEF7D2FCFEF790FC2B
:104C000086F31188F8BDE56955E902430733DB08EF
:104C100004F10C0645F8043C04343046FFF700F973
:104C2000A5F1080123469C421A6801D0994202D995
:104C30001AB1914201D31346F5E755F8044C45F8F3
:104C4000082C196055F8080C621C01EBC204A04244
:104C500011D05868421C03EBC202914204D0304686
:104C6000BDE8F840FFF794B855E90212013210444C
:104C700019605860F3E7D0E90004224445F8080CB5
:104C800045F8042CE5E700BF00000000000000002C
:104C9000244B25481A6962F01F022DE980481A61E9
:104CA0001A6902F01F021A614FF0FF341A695A693B
:104CB0005C61002259695A615969196A61F0805131
:104CC0001962196A01F080511962196A596A5C62A5
:104CD000596A5A62596A196C41F080511964196E07
:104CE00041F080511966196E016841F480710160CC
:104CF000196F01F44071B1F5007F89B003D04FF412
:104D0000803119671A67084C08486168084A094DDC
:104D100021F40071002361600146036002F1C000CC
:104D20000CE000BF0038024000700040601400201A
:104D3000389500081060024052F80C5C2B600C3271
:104D400082424B6001F10801F6D1DD4ADD4FDFF808
:104D5000B083DD487B6060254FF0FF364FF0400C9C
:104D6000C8F80860BB60C8F80C6086604FF0800827
:104D7000FB60C66082F806534FF480703B61C2F856
:104D800080C17B61C2F800C04FF4007C82F80753F9
:104D9000C2F88081C2F8008082F80853C2F880010E
:104DA000106082F80953C2F880C1C2F800C04FF405
:104DB000806CC64C82F80A53C2F880C1C2F800C0A9
:104DC0004FF4000C82F81753C2F880C1C2F800C03B
:104DD00007F1180C82F82853A146C7F818C0C2F88A
:104DE000840150600120DFF81CE33870C7F81CC054
:104DF0004FF4802C82F81253C2F880C1C2F800C070
:104E000049F804EBB249B34DC4F80490DFF8F892C6
:104E1000DFF8F8E2C1F8349001F10C09DFF8F0C2D4
:104E20000870C1E90399C7E90A53C1E90B33AA4DD8
:104E30004B604B61CB61A9498EF80000CEF80C1095
:104E40003D63CEF80430A64DDFF8C8E2CCF818E098
:104E500001F580614FF0040E04F10C098CF800009C
:104E6000A961CCF8043001F50B31CCF80C308CF88A
:104E700010E04FF0100C287020726B60EB6085F82A
:104E800010E03B62C4F80C906361C4F838C00D6C4C
:104E9000C4F8109005430D640D6EDFF87CA2A36288
:104EA00005430D66096EDAF80810E46204F1740B2C
:104EB000C4F840B0DFF864B2C4F84CB00143DFF886
:104EC00060B2C4F874B02465CAF808104FF080418D
:104ED00042F2CF0AC1F828A004F1540ACE62C4F805
:104EE00018A08B61C4F824A04B63C4F820A004F17F
:104EF000640ADFF830C2DFF83092CB60C4F81CA03F
:104F00004B60C4F83CA04861C4E911AA04F1300A1E
:104F1000C4E90CAA086082F81C834FF080504FF05F
:104F20001408C2F880016F4DC9F8049010600CF1AC
:104F30002400CCF818804FF01C08CCF8240009EBB2
:104F40000800C9E9070068496848CCF8308005F1D5
:104F50000C02DFF8D881DFF8D8A1C9F80090C5E9C4
:104F600003220CF12802C1E90080CCF8282000209F
:104F70005F4AC9F8083000210CF1100BC9E9096338
:104F8000C9E90499C5E90133CCE900CC6B61C5F8E6
:104F900000A0CCF80830CCF81430CCF81CE0CCF8E9
:104FA0002C30CCF810B0CCF820200CF13C08CCF818
:104FB00034E0CDE904010CF14000C9E90C33CDE93E
:104FC0000133CCE90F800CF144010096CCF8382075
:104FD000C9F8983076460393CCF844106846FDF73C
:104FE0006FFB6846FDF73CFB013EF7D14148D9F81D
:104FF00014E00099DFF83CB1C9F898104FF0FF3C7D
:1050000000220023C9F850B000F12C014FF0800AB3
:105010004FF0010800F1280BC9E92B66C9E9316698
:10502000C9E91B66C9E9129EC9E92E23C9E93423DF
:10503000C9F8A060C9F8A460C9F8B460C9F8CC6028
:1050400089F85960C9F8A8C0C9F8C0C0C9F840A01B
:10505000C9F874A089F85A80CEF81000C9E918B1CF
:10506000C9F86810C9E920C6C9F81400C9F88860F1
:105070002021C9F88C60C9E92423C9F8180089F8EF
:105080005880C9F8546081F3118862B61A4B1B4AE4
:10509000D868DFF8A4E04FF6FF0C00EA0C000243EA
:1050A000DA60DEF80C20DFF894C0D9F8180042F07E
:1050B0008072CEF80C20DCF800204FF0100E3FE09C
:1050C00000E100E0A00C0020006402405C0D002024
:1050D000D40C002000200140162C020000080040E3
:1050E000400D00203C1400203014002000800120DE
:1050F000212700085012002000ED00E00003FA050F
:1051000000600240CC970008005400400C0D0020C5
:10511000240D002000040040002004E0E1160008F7
:1051200000440040F012002018120020E01D002072
:10513000D13A000818960008F0ED00E0001000E0F9
:1051400042EA0802CCF80020483083F81FE083F8D8
:105150002210FDF7B5FAD9E90C23134340F022825F
:1051600086F3118862B681F31188FEF7E1F9FEF744
:1051700027FAB648FDF7ECFAFDF7F2FEFEF710FA53
:10518000FEF7CEF986F31188B148B24EDFF824B3AA
:1051900040F23E224FF48071FDF7AAFCAC4840F289
:1051A0003E224FF40071FDF7A3FCAB4AAB4B1260FB
:1051B0004FF43A715246AA48DFF8FCA2FEF7A8FA6B
:1051C000DFF8F8E286F80480BEE80F00EC46ACE8B1
:1051D0000F009EE807008CE807004FF47A70C6F8CD
:1051E00000B0C6F808A0FEF7A3FF0DF1FF380DF1DF
:1051F0001B0BB24618F8011F5046FEF781FEC3454F
:10520000F8D1DFF8BC824FF0400A08F5816B08F84E
:1052100001AC40468022FF2108F1810802F03CFAEF
:10522000C345F4D18B48FEF7D3FE4FF00008336836
:10523000A6F80C800222327141469B688548984747
:10524000336884481B6942460F219847854A86483F
:105250001421FDF7B5FF3368844AD3F818808249DA
:105260007C480123C04733687A481B6898473368F5
:1052700078481B6914220C2198477D4A7A481421EA
:10528000FDF79EFF33687B4AD3F818807649714852
:105290000123C04733686F481B68984733686D48DF
:1052A0001B6928220F219847734A6F481421FDF784
:1052B00087FF33686F4AD3F818806B49654801232C
:1052C000C047336863481B689847202383F31188DD
:1052D000FEF72EF9FEF774F9237A012B11D1674BF3
:1052E000674A196C41F400311964196E41F40031B8
:1052F0001966C0211B6E82F82613C2F884A1C2F879
:1053000004A0636F5F4A934200F08F815E4840F6CD
:105310008B0240F24541834218BF0A464FF0400AD3
:105320004FF0010842F22C1100269A604FF0020B58
:10533000C3F810A0FF22C3F81480D9601E6019685A
:105340005B6884F8782084F808B0FEF729F9FEF746
:10535000E7F886F311884D484D4C41464FF4817271
:10536000FDF7C6FB594649480322FDF7C1FB4748F4
:1053700003221021FDF7BCFB204642465146FDF7B3
:10538000B7FB4246A4F81AA04FF48071FDF7B0FBBA
:105390004FF48073638342464FF40071FDF7A8FB1E
:1053A0004FF400736383202383F31188FEF7C0F862
:1053B000FEF706F93C787E60444522D1FDF7A0F95E
:1053C000344B354A06210C20FDF702FC02462B4BDC
:1053D00011683248FA628860596CBA6A41F4807187
:1053E0005964596E41F4807159665B6ED0F8B832D9
:1053F00003F4400343F48033C0F8B832566096603B
:10540000946002233B70FEF7CBF8FEF789F8002387
:1054100083F31188224B2348234EDFF8A880812292
:105420004FF4B471FEF774F9204B214881224FF4F8
:10543000B471FEF76DF9A6F108073046FEF7F0FCEF
:105440006B68002B5AD039463FE000BF74960008C5
:1054500000040240D80D00204C150020E146000851
:1054600090190020707E0008F81100207097000845
:105470007C7E0008789700088C7E00080038024087
:1054800000E100E000100140001401400000024073
:1054900000080240A00C0020812E00084C20014092
:1054A00061410008281800204814002071420008BB
:1054B00058150020089800088097000870780008A8
:1054C000E80D0020447B00081346D3F804C003F124
:1054D0000F040CF1010224F0070403EBC202A4F153
:1054E0000800904206D2A2EB040E4FEAEE0EBEF583
:1054F0008E7F5CD81A681946002AE5D13046FEF73F
:1055000047FC2B68002B00F093800822114640F6E0
:10551000E80098470446002800F08A8040F6E80337
:1055200040E9025300EB030A474A484B8121CDE989
:1055300002A1CDE90084CDE904234FF0200A8AF3CB
:105540001188FDF7F5FFFEF73BF86846FDF700F917
:10555000012380F821300446FDF702FDFEF720F814
:10556000FDF7DEFF002383F311888AF31188FDF72E
:10557000DFFFFEF725F894F820300F2B07D0D9F87D
:105580001830A26A1A600920A362FDF721FDFEF718
:1055900007F8FDF7C5FF002383F311882046FFF7C6
:1055A000EFFA4AE772B62A4BC9F82C30FEE783427D
:1055B00012D203F10802821A40F21D11D2108E4558
:1055C0005A601ED104F6E80A40F6E803C0E9005329
:1055D0003046FEF7DDFBA7E740F21D1084451CD0E6
:1055E00003F6F800121AD2101868C3F8F42803F56D
:1055F0000F62C3F8F00892460A6003F108041846E7
:10560000E2E71968C0F8F018AEF58F7204F6E80A00
:10561000C0F8F428C3F800A0D6E71C4603F50F6ACB
:1056200054F8082B0A601846CEE740F68B0275E660
:10563000202383F31188FDF77BFFFDF7C1FF0023D3
:1056400093F82030FFDE00BF713800083097000863
:10565000687E00080000000000000000000000005C
:10566000002962DC2DE9F04F324989B00546202639
:10567000FDF7C6FD86F311882F4FFDF759FFFDF7A3
:105680009FFF3C6994F82230013384F82230FDF703
:1056900087FFFDF745FF002383F31188DFF8A4A0FF
:1056A000DFF8A490DFF8A48007960FE09BF8223083
:1056B00001338BF82230FDF773FFFDF731FF002334
:1056C00083F311882046FFF75BFA5C46D4E90612A3
:1056D00094F820C094F822005AF82CC0A668E36819
:1056E0000296002908BF49460138CDE903C101905F
:1056F000009441462846FDF783FD079B83F31188FC
:10570000FDF716FFFDF75CFFD4F810B0BB45CDD117
:10571000FDF746FFFDF704FF002383F311882046C1
:1057200009B0BDE8F04FFFF72BBA044A0449FDF772
:1057300067BD00BFA47E0008181200209C7E0008F0
:10574000F07800088C9700085C7C0008E47E000874
:1057500070B5202305460C4683F31188FDF7E8FE5B
:10576000FDF72EFFAB69E96804F10C020120A040AF
:1057700003EB820221EA00010026E9605660DA6844
:10578000022101FA04F422EA0404DC60FDF708FFB8
:10579000FDF7C6FE86F3118870BD00BF0000000053
:1057A00070B5202305460C46164683F31188FDF795
:1057B000BFFEFDF705FFA969EB680122A2400C348A
:1057C00001EB84041343EB606660FDF7E9FEFDF72F
:1057D000A7FE002383F3118870BD00BF0000000006
:1057E00038B505460C46202383F31188FDF7A0FE4B
:1057F000FDF7E6FEAB69AC60013CDC62FDF7D0FE74
:10580000FDF78EFE002383F3118838BD00000000F1
:1058100070B5202305460C4683F31188FDF788FEFA
:10582000FDF7CEFE2B786068012BC5E901405AD008
:10583000AB6900221A605A639A63DA631A645A6287
:10584000E26826686969B1FBF6F102F00F02E66AC8
:1058500001380139012A9962D8625E6003D0022AB8
:1058600014BF00220322616901F00F01012932D027
:1058700002292ED0E16901F00F0101291FD0022970
:105880001BD0616A01F00F0101291FD0022925D028
:10589000216B1A6221F0FF0201215961852002214A
:1058A00000241C61DA6018602970EC60FDF778FE56
:1058B000FDF736FE84F3118870BD42F40072616A10
:1058C00001F00F01012942F48072DFD142F48052CD
:1058D000DEE742F0200242F01002CBE742F4005231
:1058E00042F48052D4E7254B9D4208D0244B9D4280
:1058F00024D0AB6946F668029A61DA61A0E7214BD1
:10590000214A196C41F002011964196E41F002013B
:105910001966196E196A41F002011962196A21F0BB
:10592000020119621B6A19494FF00053702682F870
:105930001D63C2F8803113606961DAE7114B124AC6
:10594000196C41F008011964196E41F008011966DB
:10595000196E196A41F008011962196A21F00801EB
:1059600019621B6A09494FF48023702682F832635A
:10597000C2F8843153606961BBE700BF240D002089
:10598000400D00200038024000E100E000BD0105AC
:10599000214B224A9B692248224DDFF89880224EF3
:1059A00080B540219A614FF48172FDF7A1F81C483F
:1059B0001E4F4FF481724FF48071FDF799F818482B
:1059C0004FF481724FF40071FDF792F818492846A0
:1059D000FFF71EFF2C4620460021FFF7B9FE2046A8
:1059E0000221FFF7B5FE20460321FFF7B1FEAB68A9
:1059F000D8F80020397802FB03F24FF47A7909FBDA
:105A000002F2A6FB02322046D20BFFF7C9FE48463F
:105A1000FEF78EFBDFE700BF181200200C7F0008A6
:105A200000080240240D0020D55204E9000800209F
:105A3000380800203814002000000000000000009A
:105A4000F8B52C4F0C4606462B4938461546FFF74D
:105A5000DFFE012C23D0022C1BD12B681A784F2A91
:105A600017D15A784E2A14D19B7893B969680B786C
:105A70000BB322480124C25C11F8013F12F0040F5D
:105A800008BF0024002BF6D1ACB91D493046FDF704
:105A9000B7FB30461B49BDE8F840FDF7B1BB2868AD
:105AA0001949FBF7B1FC0028F3D101463846BDE89F
:105AB000F840FFF74DBE4FF4817201211348FDF706
:105AC00017F8686801F04CFD42F2107101FB00F11B
:105AD0000848FFF785FEB9680D4B064841F2883249
